:020000040000fa
:080000000001040000000000f3
:020000040000fa
:040008002a070000c3
:020000040000fa
:04000c002a070000bf
:020000040000fa
:040010002a070000bb
:020000040000fa
:040014002a070000b7
:020000040000fa
:040018002a070000b3
:020000040000fa
:04001c002a070000af
:020000040000fa
:040020002a070000ab
:020000040000fa
:040024002a070000a7
:020000040000fa
:04002800640600006a
:020000040000fa
:04002c002a0700009f
:020000040000fa
:040030002a0700009b
:020000040000fa
:040034002a07000097
:020000040000fa
:040038002a07000093
:020000040000fa
:04003c002a0700008f
:020000040000fa
:04004000a606000010
:020000040000fa
:040044002a07000087
:020000040000fa
:040048002a07000083
:020000040000fa
:04004c00425b010012
:020000040000fa
:04005000405a010011
:020000040000fa
:04005400f0010000b7
:020000040000fa
:040058002a07000073
:020000040000fa
:04005c002a0700006f
:020000040000fa
:040060004a0600004c
:020000040000fa
:040064002a07000067
:020000040000fa
:040068002a07000063
:020000040000fa
:04006c002a0700005f
:020000040000fa
:040070002a0700005b
:020000040000fa
:040074002a07000057
:020000040000fa
:040078002a07000053
:020000040000fa
:04007c00005c010023
:020000040000fa
:040080001207000063
:020000040000fa
:040084002a07000047
:020000040000fa
:04008800005b010018
:020000040000fa
:04008c00a05a010075
:020000040000fa
:040090002a0700003b
:020000040000fa
:040094002a07000037
:020000040000fa
:040098002a07000033
:020000040000fa
:04009c002a0700002f
:020000040000fa
:0400a0002a0700002b
:020000040000fa
:0400a4002a07000027
:020000040000fa
:0400a8002a07000023
:020000040000fa
:0400ac002a0700001f
:020000040000fa
:0400b0002a0700001b
:020000040000fa
:0400b4002a07000017
:020000040000fa
:0400b8002a07000013
:020000040000fa
:0400bc002a0700000f
:020000040000fa
:0400c0002a0700000b
:020000040000fa
:0400c4002a07000007
:020000040000fa
:0400c8002a07000003
:020000040000fa
:0400cc00ca5901000c
:020000040000fa
:0400d0002a070000fb
:020000040000fa
:0400d4002a070000f7
:020000040000fa
:0400d8002a070000f3
:020000040000fa
:040108002a070000c2
:020000040000fa
:04010c002a070000be
:020000040000fa
:040110002a070000ba
:020000040000fa
:040114002a070000b6
:020000040000fa
:040118002a070000b2
:020000040000fa
:04011c002a070000ae
:020000040000fa
:040120002a070000aa
:020000040000fa
:040124002a070000a6
:020000040000fa
:040128002a070000a2
:020000040000fa
:04012c002a0700009e
:020000040000fa
:040130002a0700009a
:020000040000fa
:040134002a07000096
:020000040000fa
:040138002a07000092
:020000040000fa
:04013c002a0700008e
:020000040000fa
:040140002a0700008a
:020000040000fa
:040144002a07000086
:020000040000fa
:040148002a07000082
:020000040000fa
:04014c002a0700007e
:020000040000fa
:040150002a0700007a
:020000040000fa
:040154002a07000076
:020000040000fa
:040158002a07000072
:020000040000fa
:04015c002a0700006e
:020000040000fa
:040160002a0700006a
:020000040000fa
:040164002a07000066
:020000040000fa
:040168002a07000062
:020000040000fa
:04016c002a0700005e
:020000040000fa
:040170002a0700005a
:020000040000fa
:040174002a07000056
:020000040000fa
:040178002a07000052
:020000040000fa
:04017c002a0700004e
:020000040000fa
:040180002a0700004a
:020000040000fa
:040184002a07000046
:020000040000fa
:040188002a07000042
:020000040000fa
:04018c002a0700003e
:020000040000fa
:040190002a0700003a
:020000040000fa
:040194002a07000036
:020000040000fa
:040198002a07000032
:020000040000fa
:04019c002a0700002e
:020000040000fa
:0401a0002a0700002a
:020000040000fa
:0401a4002a07000026
:020000040000fa
:0401a8002a07000022
:020000040000fa
:0401ac002a0700001e
:020000040000fa
:0401b0002a0700001a
:020000040000fa
:0401b4002a07000016
:020000040000fa
:0401b8002a07000012
:020000040000fa
:0401bc002a0700000e
:020000040000fa
:0401c0002a0700000a
:020000040000fa
:0401c4002a07000006
:020000040000fa
:0401c8002a07000002
:020000040000fa
:0401cc002a070000fe
:020000040000fa
:0401d0002a070000fa
:020000040000fa
:0401d4002a070000f6
:020000040000fa
:0401d8002a070000f2
:020000040000fa
:100200002f3022000e7f22000e0188000000000027
:10021000000020000000e000020032000001200089
:100220002002880014000700e50307000000e0003a
:1002300003003a0040f722001100200002003700be
:100240000000200001002000810f7000010032003a
:1002500014000700000020000000e000020032004f
:1002600000000200000000003258020001000000ff
:100270000040da000000fe004440a90060be2000fb
:100280000000e0000300320000002000a001880010
:100290004440a800000006008a1f78008b1f7800e9
:1002a0000000060091018800800478000000eb0047
:1002b0001a003700e284440032a0b4009905ba0065
:1002c000e284440032a0b4009906ba00e2844400fb
:1002d00032a0b4000006eb00476fde00fd07b2005d
:1002e000636ce10003003a00ebff07000000eb0045
:1002f0000a003700606ce10004003a00005deb008a
:100300008b05e900fdff3e00040037006168e10055
:10031000010032000086eb000b00070019c7ba008d
:100320001905ba000e04e00003003a000a00e000dc
:10033000e0ff3a0000000600fe07b2009e018800c0
:100340008a047800f5ff3700395dba008b05e900b3
:100350000c003200295dba008b05e900080032006c
:100360000c00e00003003a00e284440032a0b40034
:10037000f5ff370019ddba008b05e900faff3a00f6
:100380008904e800e184440032a0b40000000600c3
:10039000c801040001000000843e040001000000c8
:1003a0004c01040001000000663c04000100000054
:1003b000d8fe040000000000083304000100000023
:1003c000dc33040001000000ae4c0400010000001a
:1003d000262a0400010000007255040001000000fc
:1003e000809fbe00829fbe003400f8000000200005
:1003f000a00188000200fa00a09d21008040eb00cf
:1004000001487800b09d21008040eb000148780051
:100410008560a900009e210090407800f0c3b300e1
:1004200080cf500005003e00009e21001040780063
:100430008040e800009e21000148780010cf800035
:10044000e10f40000300320010cf80000000e80000
:1004500010cf8800c09d2100104078000004e0000b
:100460002900320000282000000f780070cd8000a5
:100470009e0078009100780000014000a0622100f9
:1004800000004100010878001e8fe80070cd800058
:100490009e007800910078004006b0000001400006
:1004a000a062210000004100010878001e8fe800d2
:1004b00070cd80009e00780091007800800cb00024
:1004c00000014000a0622100000041000108780006
:1004d0001e8fe80070cd80000000e80070cd88001d
:1004e00071cd800030062000808f5000e101360081
:1004f0000000eb0070cd8800b09d210011c0b3005a
:1005000001487800db013700a1e2a900c00120000a
:10051000501588001115800030fc2f00008060000d
:100520000030a000101588002115800000fc2f006d
:10053000808060007002200001007000201588009b
:10054000409e210090407800d0c3b30080cf50007f
:100550000d003a00c00f20005015880011158000d2
:1005600030fc2f00008060004001b30010158800af
:100570002115800000fc2f00008060003001b300d6
:10058000201588005e003700409e210090407800d2
:10059000e0c3b30080cf50002b003a00111580005b
:1005a00030fc2f00008060000040a0001015880083
:1005b0002115800000fc2f00008060007001b30056
:1005c00020158800509e2100104078000080fb001c
:1005d000e20f500012003200e20f500005003c0014
:1005e0000000e00008003200e10f50000900320076
:1005f00043003700e30f50000c003200e40f5000be
:100600000e0032003e003700c01121005015880056
:100610003b003700c0212200501588003800370009
:10062000c04124005015880035003700c0812800e3
:10063000501588000000000031003700f001200054
:10064000501588002e003700409e21001040780091
:10065000e24f50002a003a001115800030fc2f00b4
:10066000008060000040a000101588002115800067
:1006700000fc2f00008060007001b300201588008e
:10068000509e2100104078000080fb00e20f5000d7
:1006900012003200e20f500005003c000000e000b4
:1006a00008003200e10f500009003200140037004a
:1006b000e30f50000c003200e40f50000d00320038
:1006c0000f003700c0112100501588000c003700c2
:1006d000c02122005015880009003700c0412400c5
:1006e0005015880006003700c0812800501588008a
:1006f00003003700f00120005015880000000000c2
:10070000a1e2a80000282000000f7800409e2100f0
:1007100090407800f0c3b30080cf500004003a004e
:10072000509e210010407800e44f50002e0032000f
:10073000409e210010407800e34f500004003a0032
:10074000509e210010407800e44f500026003200f7
:1007500070cd80009e00780091007800000140007c
:10076000a062210000004100010878001e8fe8000f
:1007700070cd80009e007800910078004006b000a7
:1007800000014000a0622100000041000108780043
:100790001e8fe80070cd80009e00780091007800e8
:1007a000800cb00000014000a06221000000410068
:1007b000010878001e8fe80070cd80000000e8007e
:1007c00070cd880071cd800030062000808f5000f1
:1007d000050036000000eb0070cd8800b09d2100c0
:1007e00011c0b30001487800409e2100904078007d
:1007f000e0c3b30080cf500023003a0080cd8000da
:100800000000e80080cd880081cd8000100320002a
:10081000808f5000020036000000eb0080cd880081
:1008200080cd80009e00780091007800000140009b
:100830002088210000004100010878001e8fe80098
:1008400080cd80009e007800910078002003b000e9
:1008500000014000208821000000410001087800cc
:100860001e8fe80080cd80009e0078009100780007
:100870004006b00000014000208821000000410037
:1008800001087800eb003700409e2100904078007e
:10089000f0c3b30080cf500066003a00509e2100a4
:1008a000104078000080fb00e20f50001e00320074
:1008b000e20f500005003c000000e000080032009c
:1008c000e10f50000f003200da003700e30f500054
:1008d0001e003200e40f500026003200d500370021
:1008e0001e0078001000780090cd88001e8fe80070
:1008f0001e00780010007800d0cd8800e2e2a80049
:10090000cc0037001e00780010007800a0cd8800d1
:100910001e8fe8001e00780010007800e0cd8800ef
:10092000e302a800c30037001e0078001000780022
:10093000b0cd88001e8fe8001e00780010007800ff
:10094000f0cd8800e802a800ba0037001e00780049
:1009500010007800c0cd88001e8fe8001e007800cf
:100960001000780000ce8800e822a80000000000f7
:10097000b00037001e0078001000780020ce8800fc
:100980001e8fe8001e0078001000780010ce88004e
:100990001e8fe80070cd80009e00780091007800e6
:1009a00000014000a0622100000041000108780021
:1009b0001e8fe80070cd80009e00780091007800c6
:1009c0004006b00000014000a0622100000041008c
:1009d000010878001e8fe80070cd80009e0078002e
:1009e00091007800800cb00000014000a06221005e
:1009f000000041000108780070cd80000000e80090
:100a000070cd880071cd800030062000808f5000ae
:100a1000050036000000eb0070cd8800b09d21007d
:100a200011c0b30001487800d042a800d022a8002d
:100a300080003700409e210010407800e34f5000b6
:100a40007c003a00509e2100104078000080fb009e
:100a5000e20f500024003200e20f500005003c007d
:100a60000000e00008003200e10f500012003200e8
:100a700070003700e30f500027003200e40f5000f1
:100a8000380032006b0037001e007800100078003c
:100a900030ce88001e8fe8001e007800100078001d
:100aa00070ce8800e2e2a900509e210011c0b30080
:100ab000014878005f0037001e00780010007800c1
:100ac00040ce88001e8fe8001e00780010007800dd
:100ad00080ce8800e302a900509e210021c0b3000f
:100ae00001487800530037001e007800100078009d
:100af00050ce88001e8fe8001e007800100078009d
:100b000090ce8800e802a900509e210031c0b300b9
:100b100001487800470037001e0078001000780078
:100b200060ce88001e8fe8001e007800100078005c
:100b3000a0ce8800e822a900f0ce8000ea0f500085
:100b400004003a00509e210041c0b30001487800e3
:100b500038003700509e21008040eb0001487800ab
:100b6000340037001e00780010007800c0ce8800e6
:100b70001e8fe8001e00780010007800b0ce8800bc
:100b80001e8fe800d042a900d022a900509e21006b
:100b90008040eb000148780070cd80009e00780016
:100ba0009100780000014000a06221000000410097
:100bb000010878001e8fe80070cd80009e0078004c
:100bc000910078004006b00000014000a0622100c2
:100bd00000004100010878001e8fe80070cd800001
:100be0009e00780091007800800cb0000001400069
:100bf000a0622100000041000108780070cd800053
:100c00000000e80070cd880071cd80003006200023
:100c1000808f5000060036000000eb0070cd880089
:100c2000b09d210011c0b3000148780001003700d9
:100c300000000000409e2100904078008181fb0070
:100c400010c0b300f2032000828f510001003c006d
:100c50000040eb000141e800419e210082487800fd
:100c60000004e00003003200409e21008040eb00c1
:100c700001487800a09d210011c0b3000148780010
:100c80000080fa003400f9004f01be004f00be00a2
:100c900000400600809fbe003400f80000002000e5
:100ca000a00188000000fa0085c0a90000242200ed
:100cb0008040eb00014878000080fa003400f90021
:100cc0004f00be00004006003600f800809fbe00c6
:100cd000829fbe00849fbe00869fbe003400f80045
:100ce00000002000a00188000000fa008c00a9008c
:100cf00051012000401e2000ca46020001000000f1
:100d0000b02522008040eb0001487800b025220089
:100d100090407800a025220001487800a0252200fc
:100d200090407800c0252200014878000080fa0039
:100d30003400f9004f03be004f02be004f01be0059
:100d40004f00be003600f900004006003600f800f3
:100d5000809fbe00829fbe00849fbe00869fbe0013
:100d60003400f80000002000a00188000200fa0012
:100d7000d1138100010f780084c0a9001e00370044
:100d80001e00780040409000e14f500017003a00ec
:100d90001e007800100078000000e0001300320010
:100da0001e007800100090008000e8001e0078000f
:100db000110098001e00780010009000800078005c
:100dc0001e007800100078000000e900808f5000bd
:100dd000060036001e007800300090000000010080
:100de0001e0078008000eb00110098001e007800c3
:100df000c0009000010f78001e0078000000e000a5
:100e0000dfff3a000080fa003400f9004f03be0013
:100e10004f02be004f01be004f00be003600f90079
:100e2000004006003400f800881f78000800200009
:100e3000a80188004f0478000000fa0086c0a900cd
:100e40001fe1a80021e1a9000080fa003400f900a8
:100e5000004006000040da000000fe001004b1006f
:100e6000070035009001b100040034007000b100ab
:100e7000030035009001b10001003c0010000500a6
:100e8000000005006900e100040035006d00e1008c
:100e9000030034000002b100010032000000050030
:100ea000100005001004b100030035009001b100ee
:100eb00001003c00100005000000050080007800e3
:100ec0001104b100030035009101b10001003c00a4
:100ed0000050a00000000600800078001106b1005c
:100ee000030035009101b10001003c000050a10059
:100ef000000006000c02e20004003d000f42ab00bf
:100f0000020032000f02ab00feff32000040da00a8
:100f1000feff37000a00fa000000e0003b003a0044
:100f2000730d8100a34190000304e00037003a00f4
:100f3000f3138100e18f510003003200e28f510072
:100f40000e003a0009003700c02020000000e00039
:100f500001003a000040da000c02e2000b0035000c
:100f60001422ef000de2a8000800370060212000e5
:100f70000000e00001003a000040da001602e20042
:100f8000020035001e22ef0017e2a80002007800e0
:100f90001a003700040a2000e18f51000b003a00cc
:100fa000030037000402e90002003a0003003700a2
:100fb000040a20000e02ab00faff32007410800019
:100fc000050037000402e900020032001802ab00fd
:100fd000fcff3200c4108000610262000900320090
:100fe000e18f510002003a009410800001003700a8
:100ff000e4108000845878000000e9000000e00060
:10100000e4ff3a00000051000800370023002000f0
:10101000b3bf9f00c0bf9f00d1bf9f00e2bf9f0032
:101020006a805700f80c07006fb897000080fa003c
:10103000000006000a00fa00e20f500034003e00f3
:10104000f0138100e10f500003003200e20f500066
:1010500011003a000c003700c32020000300e0001c
:1010600001003a000040da000c02e2000200350004
:101070001422ef000de2a8000f42ab000d003a0071
:101080000f42a8000b003700632120000300e0009e
:1010900001003a000040da001602e20002003500ca
:1010a0001e22ef0017e2a8001942ab0001003a002f
:1010b0001942a800820178000b0037003102fb00c2
:1010c000e10f500004003a000f22ab00feff3a008f
:1010d00084108800030037001922ab00feff3a009d
:1010e000d41088008301e9000300e000f3ff3a0018
:1010f000e10f500003003a000f02ab00feff320088
:101100000b0037001902ab00feff32000800370069
:1011100033002000b3bf9f00c0bf9f00d1bf9f001e
:10112000e2bf9f006a805700b90c07006fb99700b3
:10113000020078000080fa0000000600889fbe00d0
:1011400080047800001481000000e00004003a00f0
:101150000e0007000084eb000000e00008003500ee
:10116000081481000900e000050032000900440075
:10117000060007000000e00001003d000084eb00d5
:10118000080078004f04be000000060080007800d0
:101190000100e00003003a0020282200001489002a
:1011a000000005000080eb0022302200828f5000fa
:1011b00002003e00011489000000eb000000060060
:1011c0000000050003f0a200889fbe008a9fbe00b9
:1011d0008c1f7800b6010700bd0133006450e100a8
:1011e0004f0032006420e1005200320003826c00a4
:1011f00007003b000905d0000306d000820f540011
:101200000c065d00020039000200320089017800fe
:10121000030678008582550004003d000003fd00b0
:101220008103fd008502ea008b854200840f720075
:1012300002003b0060001000e08018006011b80060
:101240000005eb007a28e1000a003900060078006a
:10125000c75ddd00f707b200878075002d003700fd
:10126000828171000a017800610560008180d100ef
:101270000080d3008502e900f9ff3b00060440002e
:101280008784480002003b0060041400e0841c00d6
:101290000988a300070032008a81710082817100f1
:1012a000610164008904d1000884d3008b05e80043
:1012b000170037000978a30013003a000b00e00084
:1012c000130034008b05e9000804440089844c00b5
:1012d0000a4474000978a3000d003a000b00e000f6
:1012e000070034008b05e9000804440089844c00a1
:1012f00001003a000b0020000978a300f7ff32003c
:101300000001eb0002003700828171000a017800c1
:101310002c0107000cf0a70001f0a00075013700b8
:101320006420e10002003a00838f6c0075013300f5
:101330000801be000200be006e013700889fbe009b
:101340008a9fbe008c1f7800590107001002200000
:1013500002003b00104588005d0137008a006200f2
:101360006408e10002003a0010458800650137007a
:101370006108e100fcff32000800be0003047800b1
:101380007000070001f0a1000900070008f0a600a6
:10139000040037000001be0091042400b0fd2000cd
:1013a00088ff070009f0a70001f0a20051013700f3
:1013b000889fbe008a9fbe008c9fbe000004be00b6
:1013c000260107000800be00890678006420e100bd
:1013d00008003900040032000160a0001202200061
:1013e000124588005300370091fc2300b0fd200017
:1013f0004e0037000006eb0009f0a10003f82300bf
:10140000020020000800be009f0007000600340014
:1014100001f82300000020000801be004900070079
:101420000004be002c0020000800be0093e823004a
:10143000320a230094000700120034000801be00a5
:10144000d1fd2300703d2b005fff07000005be00ab
:10145000b3f32300f27a26000800be002c01070037
:1014600003f823000200200056ff07000801be0019
:1014700055ff07000a01be00320007000004be004d
:101480000c06e8000800be0001f0a10002002000e8
:10149000039823007c0007000800be0016003500fa
:1014a0000801be001a0107000005be0032cd2c0065
:1014b00043fb230044ff0700809fbe001269280001
:1014c00003d52b000a00be0011010700620f2100a6
:1014d00013ef2b003cff07000a01be000c010700c0
:1014e0004f01be00170007000801be0008010700f9
:1014f0000801be0034ff07000c00e0000b003200c2
:101500000c10a70001f0a200b2fd200093fc230004
:101510006260e1000400320022a9200063f0230091
:101520000c10a70063f8230027ff07000df0a700a9
:1015300001f0a2004f06be004f05be004f04be00e2
:1015400000000600889fbe008a9fbe008c1f7800a6
:10155000d7000700de00330003866c006450e10012
:101560002e0032006420e100330032006150e100bf
:101570002f0032006120e1003100320085855500e6
:10158000eb07b00009002000080420000500370028
:101590000804440089844c000a003100060343001b
:1015a00087834b000001530081815b00f8ff33000b
:1015b0000203be000800a0000804440089844c0017
:1015c000f6ff3900c639dd008301730001003200e7
:1015d000130020008904d1000884d3000998a300d7
:1015e000050032000800a7000300a0008904d10014
:1015f0000884d3008b05e8008904d1000884d30057
:101600000001eb000281d2006e00070001f0a10092
:101610000cf0a70001f0a000b60037006420e10044
:10162000b80032000801be000200be00f7ff37001c
:101630006120e100b30032006000b800f3ff370022
:101640000000200001f82700f0ff3700839f6800aa
:101650000100e00002003d0060001000e080180082
:101660000300e00002003d0060011100e08119006c
:10167000100107004f00e00002003b006000100076
:10168000e080180000000600140020004001370030
:10169000f4ff2f003e0137000001be006f0007007d
:1016a0000470a70003f0a1006509b1001600320024
:1016b0000d0035006828e10006003500f0ff2f001e
:1016c000f1ff27000300e00013003b0001002800a9
:1016d0000000050000004000818048008502e9000c
:1016e000fcff3a0008003700f88f420002003c007f
:1016f0008000eb00000005008100d1000080d300d5
:101700008502e800fcff3a000300e00002003b0015
:1017100060001000e0801800000006000001be001c
:101720004e0007000470a70003f0a10003f8a30017
:1017300013003a006509b1001000320009003500bd
:101740006928e100020035000100280000000500c2
:1017500000004000818048008502e900fcff3a005b
:1017600000000600f88f4200050035008100d1001e
:101770000080d3008502e800fcff3a00000006006c
:101780008000eb00000005004f89de008201780038
:101790001a0137006011b800280137000001eb0082
:1017a000d4000700040032000200200003f82300e8
:1017b00001f0a70083fe07000000060004002000df
:1017c000f300370081002000618055000b003d00d0
:1017d0000b00200061fe2f000100e1001d0034001d
:1017e00082817100610164008904d1000884d30002
:1017f0000000e800faff3a00710020006100640078
:10180000030070000200600009003200610444001f
:10181000e0844c000988a500050032008b05e80033
:101820006808e10002003a008904d1000884d3006e
:10183000f20f20000258e10005003d00c75ddd0009
:10184000f907b200898075000800780000000600e2
:101850000bf827008b00780000000500c70ade00a7
:10186000f107b200f50fb20008003200e1cf4200ec
:10187000020032000170a00024000500810f7000fa
:10188000010032000408050044000500810f7000cb
:1018900002003a00140005008502e9000000400043
:1018a00081c04800fcff3b000170a000240005003f
:1018b0000004be00e9ff07000003be000405be00ef
:1018c0000200be00e5ff0700844f7500000006001f
:1018d0000200be006450e100050036006420e10013
:1018e000020036000968a30001003a000800be00ab
:1018f0000160a0004f0678004f05be004f04be00f7
:1019000000000600f0ff2f00f1ff2700f9ff37006d
:10191000889fbe008a9fbe008c1f7800e4ff0700ee
:10192000ebff330003866c006450e10024003200ba
:101930006420e100270032006150e1002200320003
:101940006120e100210032008b854200eb07b100ed
:101950000134b800003ab8000804420089844a0003
:10196000013ab8000030b8008880400009014a0000
:10197000040033000000400081804800020149005b
:101980008b05e900c909dd00830170000100320008
:1019900013002000c814de004814dd004709de00f3
:1019a0001200b200c808de000884700085ff07003e
:1019b00001f0a1000cf0a70001f0a000cdff37005e
:1019c0006120e100cfff32000801be000200be002e
:1019d000f7ff37006150e100fcff3a00c9ff370014
:1019e000889fbe008a9fbe008c1f78000004be0046
:1019f0009aff07000478a30026003a006120e10066
:101a00002500320009f8a30025003a006420e10017
:101a100021003200f507b1000508a30002003200e2
:101a200000004000818048006044b800031020009e
:101a300002002000000040008180480008054400aa
:101a400089854c000a0541008b8549000a05500034
:101a50008b855800030033000a00be0002047400a6
:101a6000838474008301d1000281d300830f71004d
:101a7000f0ff3a008904d1000884d30060014900d6
:101a800082017800c1adde00fb07b0004dff07000a
:101a900098ff37000960a0000800be0095ff3700de
:101aa0001202200012458800f0ff2f00f1ff2700ee
:101ab00090ff37006022b800060220000000d0002e
:101ac0008180d2000482d2008582d2000000a00072
:101ad0000202520083825a000300310002024200d7
:101ae00083824a000000a1000603e900f3ff3a00e8
:101af00000000600889fbe008a9fbe000003be0053
:101b000056ff070085057800828152000200200000
:101b10006220e10004003a00f307b1000400350040
:101b20007718e100040035000600be0014003700fd
:101b30006000b8000f003700f50f2000faff2f00fb
:101b40008502d1000a85d3008301e900fcff3b0038
:101b50008184620000046500890f7400f2ff320086
:101b60008582ea000a85ea0081846200000465003b
:101b700014ff070007f0a70001f0a0000081eb00b0
:101b80000200e0004f05be004f04be00000006004a
:101b9000889fbe008a9fbe00841f780044ff070014
:101ba0004f00780011003300f0ff2f00838f6c008e
:101bb00006003b00040565000a00a7000800370086
:101bc00009f0a6001000200008003700820f540022
:101bd000838f5c00030039001000200001003e00ec
:101be0000000200009f0a7000000ea004f05be0039
:101bf0004f04be000000e00000000600881f7800cf
:101c0000030478000300e00007003d0060001000be
:101c1000e080180060011900e081190002003b001b
:101c200001f02d00030037000400070008f0a700b2
:101c300001f0a0004f04780000000600889fbe005d
:101c40008a9fbe000082700004027100048271004d
:101c5000260032000004be000200be006011b80081
:101c60006b092000950220000182cf000a00390094
:101c70000541b1000082cf00070039000541b100e5
:101c80000982cf00040039000541b1000882cf006d
:101c9000010039000541b100054252001200320036
:101ca0000a003b0082817100610164008100d10063
:101cb0000080d3008984d3000884d3008b05e8001a
:101cc0000442e800f7ff3a00070037000804440028
:101cd00089844c0000004800818048008b05e900a1
:101ce0000442e900f9ff3a00b6fe07004f05be00c6
:101cf0004f04be000000060080007800010078005c
:101d00003041780003c2b300834f5100faff320024
:101d1000e94f5100f8ff3200edc14100834f5100ff
:101d200003003a008000780013c0b30005003700bc
:101d30008041eb00b4c2b300844f510001003a006f
:101d4000800078000000eb00020037006a02b90052
:101d5000040041003101fb000203b100e90f510012
:101d6000faff36000304e000010032000000ea0040
:101d70000000060000047800de000700080078007c
:101d80005cfc0700889fbe008a9fbe008c9fbe003f
:101d900041222200221181000200e0000b003a00e3
:101da000648140002211890072118900a10098000d
:101db00061118900214190000204a000a240980016
:101dc000614190000204a000e240980067044000d6
:101dd0004244de004244dd006411810021282200db
:101de00029302200818454002d00200011000900b8
:101df0008d04d800800678000886e8000c064600ae
:101e00008001eb0002003700130020000b02780075
:101e1000a44090000108a300020032000a0037002d
:101e2000120a780014017800a24090000108a30073
:101e3000fbff320088004200810f51000200390090
:101e40000800e00042003d00940578000b00a1006e
:101e5000848f5500edff3e00e18f5100eaff3a000c
:101e60008d0f540002003600890f54001400390011
:101e70006141b8006148b900b4ff2f00050020009f
:101e80000000520081805a00800f5100818f59005c
:101e900002003500640544000a00370020282200b3
:101ea0005a302200000555000805450011000900c0
:101eb0000985d8000980b9000005780001003700c5
:101ec0000c0578000a0078009cfc0700e10f400038
:101ed00005003a00640544000a00780097fc0700fa
:101ee000e10f40002b003200711181008008780062
:101ef00071118100e481400021419000830f500066
:101f0000020032000204a000010037000204a10018
:101f1000a2409800640555000a0540000a087800b0
:101f20007a11890041222200010d7800721181008e
:101f3000a24090000104a00021419800a040900020
:101f40000104a100214098008001eb00afff3700a1
:101f500061118900810f5100070036001101be0098
:101f60008211890093118900940878000041eb00e8
:101f700061118100a240980063118100030a78007a
:101f8000a44090000104a000214298006400420097
:101f9000010037000000eb004f06be004f05be00f9
:101fa0004f04be00000006000000e0000800320000
:101fb0006400500061118100810f50000100310068
:101fc00060118900a04090000104a1002140980008
:101fd00000000600889fbe008a9fbe000004be006d
:101fe0000900e00007003a000000eb000800e000f4
:101ff0003600320008007800ebff07000000eb001d
:10200000320037000800e00003003a0009007800c1
:102010005cff07002d003700640054009005780035
:1020200068f897000008a30002003200080078005a
:10203000ddff07000900780052ff070080047800e8
:102040000000eb000900e00020003200888f5400ff
:102050001b00320069bd97000905550042d5de001e
:1020600088855500c2ddde000a0178008b0f55001f
:10207000010036000b0178004211dd008800780075
:102080000900780014000700888f54000e0031000a
:102090004255dd000a854400880f55000a003600cd
:1020a0000804550042c4de004244dd0008844400b8
:1020b0008011810091118100008cbe000200370068
:1020c0000800780001003700090078004f05be00c5
:1020d0004f04be00000006008001780002003700b7
:1020e000b15978000201e9000200e000fcff3a006b
:1020f0000000060000000600800078003104e000c7
:10210000feff3a000080ea00008040000000060068
:102110000c00fa00a0bf9f00c0bf9f00f6ff0700a1
:10212000b0bf9f00f0bf9f00100c2000d0bf9f00e9
:1021300074815700efb097006c805700340007009f
:102140000080fa0000000600881f7800e01381007c
:1021500065070700000478000800780049fb0700c5
:102160000000e000f9ff3a00e10f440003003200f4
:10217000e1138100080078001b0807004f04780075
:1021800000000600889fbe008a1f780000047800c7
:10219000814478000205780000fd2f00080040000f
:1021a000e90f500002003e000004780010003700e4
:1021b000080078003bfb07000000e000050032004b
:1021c0000a00e00003003200080078003bfb070033
:1021d000000478000800780020fb070080007800e9
:1021e00000c0eb000100e000060032007805b100fd
:1021f0008984fb0000c0eb00890f540001003d0002
:10220000084078004f0578004f04be00000006002b
:10221000f0874700889fbe008a9fbe008c9fbe004b
:102220008e1f78000105780082047800e013890091
:102230000000eb00c0b79f00e0b79f000044eb0038
:10224000600137000a05e8000b86fb000c007800ef
:102250000cfb07000000e00002003200baff07009c
:102260005501370050c2b30080cf550043013a00fa
:102270008046eb0021c0b3000d4678000a007800cc
:1022800001477800040037004ec0b300010037005a
:102290002ec0b3000a007800ba45780091c6b3009a
:1022a00081cf5500a30032001c003e00e6c0500064
:1022b00081cf55007700320011003e00f7c050007a
:1022c00081cf55002c00320006003e000b04e000d8
:1022d000bd003200a1c2b30081cf550082003a0098
:1022e0002300370081c5b30081cf55007e003a003e
:1022f0000e407800b0ef9f0011002000250037004d
:1023000041c6b30081cf55008a003200e4c04000ce
:1023100081cf550074003a00ddff3700f1c6b300ed
:1023200081cf55008700320007003e00e3c0500017
:1023300081cf55001000320081c0e80081cf5500e8
:1023400069003a001600370051c7b30081cf55002d
:1023500078003200e3c0400081cf55000a0032000f
:10236000e5c0500081cf55005f003a001c003700e7
:102370000c46e800c7ff3700e24f5700c2ff3200ab
:102380008ec0b300c3ff37000e407800b0ef9f004f
:102390008000eb00c1b79f0000c1b3006c003700a4
:1023a0008e407800b1ef9f000c04e00069003a0015
:1023b0008984e900e4cf500005003a001900780054
:1023c000efb097006109b9000288be0061003700d4
:1023d00019007800efb09700010878005d00370021
:1023e00059ff07000c04e00002003a0049007800a1
:1023f000b0b79f00e0138100bb060700800578009e
:10240000e18f4500020032006fb7970014003700db
:102410000b007800e20037000e07e8001a00fb000e
:10242000808f550002003a000a05e80013003700cb
:102430000c04e00003003a00bfb097008b5878000e
:10244000b1b79f00cfe8970001c046008e4f500003
:102450000a003200e0138100a3060700800578001f
:102460000b00e800e10f5000040036000b0078007c
:1024700084fa07000000e000e7ff32000c04e000ef
:10248000ce003a000844e8003fb097000c487800be
:10249000ca0037000c04e00003003a000844e800da
:1024a000c9007800b1b79f006fb79700bfb597001c
:1024b000e01381008c060700e10f4000b8003200f5
:1024c0000c04e00002003a000e07e800805d78008e
:1024d0008d46e9004240a900f5ff3c000b00780062
:1024e000b0b79f00b50037008b85fb0001fd2f00c2
:1024f0008b804000e98f500009003e00fefd070080
:10250000804678008a007800010578003100fb00e1
:102510000003b100e90f5000fbff36005dff3700fc
:10252000e013810070060700808f550097003a0085
:10253000a10037008e407800b1ef9f00a0c0b3002b
:10254000030037008e407800b1ef9f0080c0b300d9
:10255000a0ef9f00fcfe0700e01381006206070069
:1025600080057800efb097008100e800e1b79f0098
:102570000040eb00d0e79f00d0022000808f550084
:1025800008003a00e0138100570607008005780034
:10259000efb097008100e800e1b79f0010c0b300e2
:1025a000d0e79f004fb19700afe897000b0078008d
:1025b000f4fe0700e14f40000c003a00e1138100f7
:1025c0000b007800080707000804e00080003a00cc
:1025d000e0138100b00090000000eb000148a30070
:1025e0007c0032000080eb007a00370000032000fe
:1025f000808f550018003a00e01381003a0607006a
:1026000081072000810f500004003a00cfb09700ee
:102610000100e000070032000d00370081052000b6
:10262000810f50000a003a00cfb097000100e0008f
:1026300007003200e01381002b06070080057800b8
:102640006fb097000080e800e0b79f0002003700fd
:10265000e1138100e40607006022b800c8e79f008c
:10266000090778000404be0001003700e3b79f00ab
:10267000afe897000181fb008001eb000800be007d
:102680007c0907000004be004fb19700afe8970037
:102690000b007800bbfe07000080fb008000eb0011
:1026a0000004440081844c006fb097008001e80072
:1026b0008d46e9000b003200e0138100f3b79f0064
:1026c00009060700800578004fb19700afe8970032
:1026d0000b007800abfe0700ffb19700e14f400010
:1026e000e2ff3a000802be004fe497008e04780033
:1026f000030778004fb19700afe897000b00780010
:10270000f4b79f0085bf9f009efe07007fb2970031
:102710008fba9700e14f400006003a00e1138100b4
:102720000b007800b00607006fb797008fba9700cc
:102730007fb29700dfe097000104e0000200320062
:1027400060021200e0821a000c04e0001b003a0054
:102750000844e8008984e9003fe89700e44f50000e
:1027600003003a00190078000488be001300370007
:10277000190078000408780010003700e013810089
:10278000d9050700800f560008003200e10f400015
:1027900003003200e1138100930607000c003700ac
:1027a0000804e0000a003a000a0037006fb0970002
:1027b0000007e800010037006fb797008e0078002f
:1027c000e1b79f009a4578000b04e0009dfe3a00b7
:1027d0000880fb004f0778004f06be004f05be0083
:1027e0004f04be000f01b100000006000c00fa000b
:1027f000889fbe0000047800f0ff2700d0bf9f0034
:102800008004eb0099bf9f0088bf9f00a8bf9f0076
:10281000200c2000b0bf9f0078815700cfb09700f8
:1028200070805700cf0007000fb897000948780064
:102830008fb89700088050004f04be000080fa0057
:10284000000006000800fa00889fbe008a9fbe00b4
:102850000084fb00d1c6b300814f50003400360025
:102860004b062000110009000b84d8008105780078
:10287000720040004300dd00a9c521000080440033
:102880006022b8000600200007fe23005001be00b1
:102890004000be007c0807000002be000203be002c
:1028a00084bf9f0095bf9f00a6bf9f00b7bf9f003a
:1028b000aa002000110009008a85d8008005780050
:1028c000e9854500c35ddd008b8544003b02be0009
:1028d0002b03be000fb897009fb897002fb9970041
:1028e000bfb99700680807000002be000203be00df
:1028f00084bf9f0095bf9f00a6bf9f00b7bf9f00ea
:10290000110009000a84d800010478004344dd0066
:10291000888444003902be002903be000fb8970026
:102920009fb897002fb99700bfb997001d003700d7
:10293000ea4f500013003600aa00200011000900e1
:102940000a84d80001057800690440004344dd0092
:10295000a9c52100088444006022b80006002000b8
:1029600007fe23003800be002801be00460807000d
:102970004355dd008a8444003902be002903be00ad
:10298000080037004344dd00a0c5210008044000d2
:102990006022b8000600200007fe23003800be00b9
:1029a0002801be00380807004f05be004f04be00d6
:1029b0000080fa00000006000800fa00889fbe00b0
:1029c0008a9fbe00d1c6b3000004e00023003d0092
:1029d0000040ea000004fb00814f50000a00340070
:1029e00042062000110009000204d800a9002000be
:1029f000110009008900d800e9004000c308dd008b
:102a0000aac5210021003700ea4f50001000340011
:102a1000a2002000110009000204d8000101780082
:102a2000690040004300dd00a1c521000080400096
:102a30004311dd00828040003102be002103be0050
:102a40005001be004000be000f08070038003700ec
:102a50004344dd00a0c52100320037000004fb0024
:102a6000814f50002300340042062000110009006d
:102a70000204d800a9002000110009008900d80034
:102a8000e9004000c308dd00aaba2100810045002a
:102a90003102be002103be008b0920008a8545005b
:102aa0003b00be002b01be00f70707000002be007e
:102ab0000203be0084bf9f0095bf9f00a6bf9f007a
:102ac000b7bf9f00110009000904d8000104780075
:102ad0004344dd00080545003a02be002a03be005b
:102ae0000fb897009fb897002fb99700bfb997000c
:102af000d5ff3700ea4f500008003400a200200044
:102b0000110009000204d8000101780069004000aa
:102b10004300dd00a1ba2100c4ff37004344dd00bb
:102b2000a0ba2100080440003800be002801be0001
:102b30004f05be004f04be000080fa0000000600f2
:102b4000d0019000028151004240a90003003400ee
:102b500010017800014978000208e80001007800bf
:102b6000000006006f02b000889fbe008a9fbe0072
:102b70008c9fbe008e1f780000067800b1af9f00ca
:102b800092b79f006000b8006011b800d0af9f00fe
:102b9000e1af9f00f2af9f0083b79f008006eb007c
:102ba000c5043700bfa897008100e800b1af9f00bf
:102bb00051c2b300814f500003003a00bfa89700f4
:102bc0000007eb0011003700bc0090000000fb0084
:102bd0000168a300070032000d0178008000780032
:102be0000c007800d6ff07000000e00005003a0066
:102bf000b10437008c00780038050700e10f400071
:102c0000ad0432008d06e800ab0437000101780006
:102c100031407800d3c2b300834f50000c00320023
:102c200007003c00edc15100834f50000a00320004
:102c3000ebc14100834f50000d003a0008003700ff
:102c400003c3b300834f500009003a000600370069
:102c50000e30a000edff37000e00a000ebff3700a4
:102c60000e10a000e9ff37000e20a000e7ff37009c
:102c70000e18a300010032000e00a1000e38a300c0
:102c8000010032000e20a1008000fb000103b10012
:102c9000e98f50000c003e00020078008005eb0038
:102ca0006a59b900b005fb000b03b10082854500ed
:102cb000000178009000fb000103b100e98f500093
:102cc000f7ff3600080037008005eb00a1c2b30013
:102cd000814f500004003a009fb19700c30578006f
:102ce00093b79f000201e800e0c2b300924f1000ca
:102cf00016003a000ee0a00064405000d24f1000d1
:102d000003003200020078008001eb000800370069
:102d10009fb297004503780095b79f00e6b79f00e4
:102d20000201e8000c0037006a19b90082814000f6
:102d300000017800b000fb000103b100e98f5000f2
:102d4000f9ff3600e3b79f00030037000ec0a00074
:102d50008003eb00e7b79f008201780033407800e2
:102d600003017800c1c6b300814f50002b00320030
:102d7000b3af9f0014003c00e8c05000814f5000ea
:102d80002400320009003c00ecc05000814f50008c
:102d90002a003200ebc04000814f50008c0032000e
:102da0000004e00049043200a200370061c6b3000d
:102db000814f50001b003200e3c04000814f5000a3
:102dc0009c003a001300370031c7b300814f500018
:102dd0001e00320007003c00e4c05000814f50004c
:102de000130032008140e800814f500091003a000a
:102df0001200370051c7b300814f500092003200db
:102e0000e3c04000814f50008a003a00e0cf9f00ad
:102e10000c003700e0cf9f008d0037000e40a0006f
:102e2000cdff3700e0cf9f000ea0a0008800370044
:102e3000e0cf9f000e60a00085003700e0cf9f002c
:102e40000e50a0000e70a00081003700e0cf9f0060
:102e50009fb097004100780091b79f000004780070
:102e60000000e00001003a00080a22008800780013
:102e70000000eb00010037000000e800614178002d
:102e80000204e000fcff3a00800478006fb1970074
:102e90000200e00003003200890f51000100310000
:102ea000820478000005eb00898f55000100360090
:102eb00009855500680767002a003a0011003700ad
:102ec0003c0090000068a300070032000d0178006c
:102ed000010220000c00780019ff07000000e0004c
:102ee00006003a00060037008c007800000220003f
:102ef0007a040700e10f4000010032008d06e8006f
:102f00000a05e9000a00e000edff3a000085eb0049
:102f1000140037003c0090000068a3000900320054
:102f200008007800b000fb00000478000d01780074
:102f30000c00780002ff07000000e00008003a00e3
:102f400008003700880078003100fb000104780099
:102f50008c00780061040700e10f4000010032009e
:102f60008d06e800090078008004e9000000e00018
:102f7000e8ff3a000e00e000cf03320011003700f6
:102f80003c0090000068a300070032000d017800ab
:102f9000010220000c007800e9fe07000000e000bc
:102fa00006003a00060037008c007800000220007e
:102fb0004a040700e10f4000010032008d06e800de
:102fc0000a05e9000a00e000edff3a00ba03370005
:102fd0009fb197004302780093b79f00cfa2de0015
:102fe000482bdd004820de0000007300c828de000a
:102ff000e0cf9f000e48a300080032000004e0006c
:1030000006003200e14f400004003200f0cf9f0084
:1030100084d79f002900200002003700f4cf9f00d2
:1030200019002000e7fc2f008f8343000704e8000d
:1030300096ff3700e0cf9f00e8fc2f000f0444000c
:103040001900200091ff3700e0cf9f000e0cb30065
:103050000170200081006700700067000100e0003f
:10306000190232000ec8a3000200320061002000e5
:10307000e1b79f000000e000060032001fb097009b
:10308000680050003002be002003be0090b79f00d1
:10309000060037001fb197004200be0092b79f00a4
:1030a000090607000002be000203be00a4b79f008d
:1030b000b5b79f00c6b79f00d7b79f006022b80082
:1030c0006033b8002fb09700bfb097004fb19700a2
:1030d000dfb197004e0507000000e0000a003d0048
:1030e0002fb09700bfb097004fb19700dfb19700a6
:1030f00003f0a200a0b79f00b1b79f00c2b79f0026
:10310000d3b79f003e00b3000000eb0090af9f00dc
:103110006022b8006033b8002fb09700bfb09700ae
:103120004fb19700dfb197009d0507000000e00058
:103130003400320024fd2f000f0242002fb0970010
:10314000bfb097004fb19700dfb19700300607007e
:103150001fa897000000e9006302b900a200200048
:10316000110009000202d80090af9f000000e000ab
:1031700002003d000000e90090af9f001fac9700e7
:103180000840ea000cfe07002fb29700bfb297007c
:103190004fb39700dfb397003b0607000002be0065
:1031a0000203be00d4af9f00e5af9f00f6af9f00c3
:1031b00087b79f006022b8000600200007ff2300a9
:1031c000130507000000e00002003d000804e900cc
:1031d0000b0037006022b8000600200047022400e0
:1031e0005fa89700efa897007fa997008fb197007d
:1031f0000c0507000000e000020035000804e800ac
:1032000098af9f00efb29700ec8f52000f003c0088
:10321000054078008bfd07000002be000203be00df
:103220002fb09700bfb097004fb19700dfb1970064
:10323000790407000002be000203be00a4b79f008d
:10324000b5b79f00c6b79f00d7b79f001fac9700c8
:10325000e90f540015003c006022b8006033b8004c
:103260002fb09700bfb097004fb19700dfb1970024
:103270004b0507000000e000310032002fb097003e
:10328000bfb097004fb19700dfb19700ad050700c1
:10329000e00f5000e08f5800e00f5900e08f590018
:1032a00027003a00e10f54002500340004002000fc
:1032b00005002e00b6e02200170124005fa8970049
:1032c000efa897007fa997008fb19700d00407005f
:1032d0000000e00002003d006904540001003700d6
:1032e0006804540098af9f002fd09700b2fd0700ec
:1032f0000002be000203be00d4af9f00e5af9f00f6
:10330000f6af9f0087b79f002fb09700bfb0970020
:103310004fb19700dfb19700c70407008905070088
:103320000004be006000b8006011b800a0b79f00a4
:10333000b1b79f00c2b79f00d3b79f0016003700f8
:103340002fb09700bfb097004fb19700dfb1970043
:103350007c0507000004be00ab0507000002be00ac
:103360000203be002fb09700bfb097004fb1970087
:10337000dfb197003a0607000002be000203be005c
:10338000a4b79f00b5b79f00c6b79f00d7b79f00ef
:103390000000eb0090af9f00810a220010c0b30034
:1033a00005003700e4804000b10f5400a18f5c009d
:1033b000030039000040e800ea4f5000f9ff3a00ee
:1033c000e0cf9f009fa8970081805500efb2970043
:1033d000858050000005fb000a8550000500e000d4
:1033e000010032000a05e9006300670001003200b5
:1033f0000a05e9000e28a3003900320061016700c8
:103400000e18a3000f0032003c0090000068a300db
:1034100006003200b10220000200e000010032008c
:103420008180e8000d0178000d003700b002200017
:103430000200e000010032000080e8008c0078000b
:103440000e0037000200e000220032003c00900035
:103450000068a300070032000d017800010220007f
:103460000c007800b6fd07000000e00006003a00fe
:10347000180037008c0078000002200017030700b6
:10348000e10f4000130032008d06e8001100370004
:103490003c0090000068a300070032000d01780096
:1034a000010320000c007800a5fd07000000e000eb
:1034b00006003a00060037008c0078000003200068
:1034c00006030700e10f4000010032008d06e8000e
:1034d0000a05e9000a00e000edff3c005700370054
:1034e0000e38a30014003a00110037003c00900091
:1034f0000068a300070032000d01780001022000df
:103500000c0078008efd07000000e00006003a0085
:10351000060037008c00780000022000ef02070050
:10352000e10f4000010032008d06e8000a05e900c5
:103530000a00e000edff3c00610167000e18a300e7
:103540000e0032003c0090000068a300050032002d
:10355000b10220000200e000220032008180e80079
:1035600020003700b00220000200e000010032001d
:103570000080e8008c0078002c0037000200e0009a
:103580002e0032003c0090000068a30003003200cf
:103590000d01780001022000130037008c00780034
:1035a00000022000210037003c019000800a220028
:1035b0008100fb000268a30010003200c208dd0099
:1035c000810040001101be000800be0039f907006b
:1035d000a200200003002000a30507000103200033
:1035e000808040000d0178000c00780054fd070039
:1035f0000000e00010003a0010003700c208dd00b3
:10360000810040001101be000800be0029f907003a
:10361000a200200003002000930507000203200001
:10362000000141008c00780002007800ab02070026
:10363000e10f4000010032008d06e8006fc89700de
:103640008040e900e1cf9f000004e000d6ff3a008f
:10365000130037003c0090000068a3000700320010
:103660000d017800010320000c00780034fd0700f4
:103670000000e00006003a00060037008c007800e9
:103680000003200095020700e10f40000100320016
:103690008d06e8001fa897000000e90090af9f008a
:1036a0001fa897000000e000eaff3c006fb39700fe
:1036b000e80f53000300340080c0b300e0cf9f0048
:1036c00002003700cfeb9700e7cf9f006fc897004d
:1036d0008005fb00efb097008b8550000004e000f0
:1036e000100032003c0090000068a3000700320088
:1036f0000d017800e10220000c00780010fd0700a9
:103700000000e00006003a00060037008c00780058
:10371000e002200071020700e10f400001003200ca
:103720008d06e8006fc89700a3fc07000002be00ea
:103730000203be002fb09700bfb097004fb19700b3
:10374000dfb19700d00407007e0407002d0037008a
:103750003c019000810a22000000fb000268a300e7
:10376000100032004200dd00808040001101be00e8
:103770000800be00cff80700a200200003002000d0
:103780003905070001032000808040000d0178000a
:103790000c007800eafc07000000e00010003a008e
:1037a000100037004200dd00808040001101be00a3
:1037b0000800be00bff80700a200200003002000a0
:1037c0002905070002032000000141008c00780059
:1037d0000200780041020700e10f400001003200c2
:1037e0008d06e8006fc997000200fb004200dd0073
:1037f000810a2200008040001001be000800be00c7
:10380000190507000004be00efc897000140e90059
:10381000e0cf9f000104e000cdff3a001100370027
:103820003c0090000068a300070032000d01780002
:10383000010320000c007800c1fc07000000e0003c
:1038400006003a00060037008c00780000032000d4
:1038500022020700e10f4000010032008d06e8005f
:103860008b05e9000b00e000edff3a000e38a300e5
:10387000910132000a00e0008f0134003c0090000a
:103880000068a300070032000d017800010220004b
:103890000c007800aafc07000000e00006003a00d7
:1038a000060037008c007800000220000b020700a1
:1038b000e10f4000010032008d06e8000a05e90032
:1038c000eeff3a007c0137008e007800010cb20058
:1038d00011003a000000e000040032009fb19700a0
:1038e0004304be0093b79f00040037001fb2970047
:1038f0004404780094b79f00cfc4de00e00f54006a
:10390000e08f5c000e003d003e00b3006004140038
:10391000e0841c000a0037000000e00004003200d0
:103920009fb297004504be0095b79f000400370082
:103930001fb397004604780096b79f008004eb0001
:10394000efb397000700e00006003a00088074001b
:1039500000f0a7000000ea000000e9004f00de00d0
:10396000e0b79f000e007800000cb200c0af9f00cf
:1039700000042000cfa89700808f50002300320061
:1039800003003c000100e000080032002d00370079
:10399000000820004fa99700800f51000d00320051
:1039a000000c2000800f510026003a00810a2200fe
:1039b00010c0b300e4804000b10f5400a18f5c0040
:1039c0001f0039000040e800ea4f5000f9ff3a00bc
:1039d0001b00370010c0b3000201200003002000cc
:1039e000820f5400838f5c0015003900441add00fb
:1039f000cc11de00830172004411dd000040e800bc
:103a0000e84f5000f6ff3a000d00370010c0b30039
:103a10008200200003002000820f5400838f5c008e
:103a200007003900c31add00cd11de00838172006a
:103a30004311dd000040e800eb4f5000f6ff3a0074
:103a4000e0cf9f006fcb97000600fb00efb397001d
:103a5000870f500002003d00e7cf9f0004003700b1
:103a6000efb09700808f500001003d00e0b79f004d
:103a70000b00e00003003200630067000100320029
:103a80008b05e9000ee8a300060032006fb1970035
:103a9000828f5500020034008285550001003700f6
:103aa0008005eb00efc997000300fb000002eb006c
:103ab000a4b79f00808f550002003400008055009d
:103ac000a0b79f000e28a3003c00320061016700f0
:103ad0000e18a3000f0032003c0090000068a30005
:103ae00006003200b10220000200e00001003200b6
:103af0008180e8000d0178000d003700b002200041
:103b00000200e000010032000080e8008c00780034
:103b10000e0037000200e000100032003c00900070
:103b20000068a300070032000d01780001022000a8
:103b30000c00780002fc07000000e00006003a00dc
:103b4000060037008c0078000002200063010700a7
:103b5000e10f4000010032008d06e800afb297008f
:103b60000500e00052003200050578003c0090009e
:103b70000068a300070032000d0178000103200057
:103b80000c007800eefb07000000e00006003a00a1
:103b9000060037008c007800000320004f0107006a
:103ba000e10f4000010032008d06e8000a05e9003f
:103bb000eeff3a00aab79f003d0037002fb39700f1
:103bc0000600e000160032000e38a30014003a0090
:103bd000060578003c0090000068a3000700320052
:103be0000d017800010220000c007800d4fb0700d2
:103bf0000000e00006003a00060037008c00780064
:103c00000002200035010700e10f400001003200f2
:103c10008d06e8000a05e900eeff3a00aab79f000a
:103c2000610167000e18a3000f0032003c009000f5
:103c30000068a30006003200b10220000200e0008c
:103c4000010032008180e8000d0178000d0037008e
:103c5000b00220000200e000010032000080e80015
:103c60008c0078000e0037000200e00010003200e7
:103c70003c0090000068a300070032000d017800ae
:103c8000010220000c007800adfb07000000e000fe
:103c900006003a00060037008c0078000002200081
:103ca0000e010700e10f4000010032008d06e80020
:103cb000efb397000702e9006320b9000001780024
:103cc000a2af9f004222dd00800a220000024200d3
:103cd00004057800cfad97005c003700efb1970086
:103ce0008301e900e3b79f0000042000808f5500a6
:103cf0003700320003003c000b00e00007003200f8
:103d00003d00370000082000808f55002000320061
:103d1000000c2000808f550037003a000e48a300a9
:103d2000100032001a02be000401be000800be00ee
:103d3000f4b79f0085bf9f005ef70700e0cf9f00ac
:103d40000000fb00cf80de007fb297008fba9700a3
:103d50000401be00c70307000004540081845c0016
:103d6000070037001a017800110009000284d8000a
:103d7000a2002000110009000280d800e1cf9f00be
:103d80006fca97000443b000e4cf9f001a003700c9
:103d9000f00822000e58a30001003200e0072200c4
:103da000810a2200810055000801be008100e9005f
:103db000030033008301d1000281d300fbff3700f1
:103dc0006f01610060417900e2cf9f000a00370077
:103dd0000800be00afaa97008502e9000300330087
:103de0008100d1000080d300fbff370067406000f6
:103df0000043b000e0cf9f00bc0090006fcb970065
:103e00000600fb000168a300070032000d017800e6
:103e1000800078000c00780049fb07000000e000fb
:103e200005003a00050037008c007800ab00070061
:103e3000e10f4000010032008d06e800afab9700b3
:103e4000e3835300a7af9f00640555006fb0970050
:103e50000000e000a1ff3a000e38a3001600320077
:103e6000afb097000100e0001300340001057800b6
:103e70003c0090000068a300070032000d017800ac
:103e8000010220000c0078002dfb07000000e0007c
:103e900006003a00060037008c007800000220007f
:103ea0008e000700e10f4000010032008d06e8009f
:103eb0000a05e900eeff3a003fa99700124078009a
:103ec000e0cf9f000004e00036fb3a000d007800d0
:103ed0004f0778004f06be004f05be004f04be00de
:103ee0006f02b10000000600881f7800000478000f
:103ef00038009000f1006000e18f500005003a00aa
:103f00000098a30008003200980090000100e00033
:103f100005003200380090000040a00030049800f6
:103f20000080eb001f0037000090a10030049800d3
:103f3000180090000000e000060034000000e900d6
:103f400010049800980078001180fb00010ce80034
:103f500005003700380090000068a300edff3a002c
:103f60000800780011000700b80090000178a30055
:103f70000c003a00fa0f500008003a0028009000a8
:103f80000000e000e3ff3200180090000000e800ad
:103f900010049800180ce900deff3700ed0f500008
:103fa000e3ff32004f047800000006000200fa0030
:103fb000889fbe008a1f7800000478000000eb0094
:103fc00010049800b80090000080eb000108a300e6
:103fd0003e003200602622001004e0000f00320094
:103fe000ea1a2200c9fd2f008a844400390090009b
:103ff0002010b20021102000810f500002003a0072
:104000000900780097000700ec8444008a8f540070
:10401000f6ff3a00602622000048eb0058019000ad
:104020000200e0000e003a00120498001200200086
:10403000e880570048009000b6f30700e10f5000f9
:1040400003003a008ff897000180fb001f00370043
:10405000380090000040a0003004980013003700a2
:10406000a800900048009000aaf3070010049800f0
:104070000000e00003003200e10f40000d003a00b4
:1040800003003700380090000040a0000200370015
:10409000380090000003b30030049800280090001e
:1040a000000c78000000eb00100498000080eb008a
:1040b00006003700a8009000010c78000000e9001d
:1040c000100498001180fb00010ce8004f057800f7
:1040d0004f04be000080fa0000000600889fbe006a
:1040e00001047800b80090008084eb000118a30060
:1040f0003a003200180190000198a30002003a0033
:104100000200e00035003a000190a0003104980060
:1041100080047800f90fb2000200e00002003a00cb
:1041200028009000000c7800ea8f540005003a0047
:104130000178a30003003a0088007800d000200036
:10414000e6ff070018009000d8009000810f500093
:104150000b0032000000e8001004980018007800fe
:1041600009487800000ce80011c0b3006026220066
:1041700001487800ea8f540018003a000500370023
:10418000880078000940780060000700800478000b
:1041900012003700380090000088a3000f003200a2
:1041a00018019000a800900048009000a1f30700bb
:1041b00098009000810f50000400320038009000f9
:1041c0000003b300300498008084eb000000eb0093
:1041d0001004980028009000000c78000900780076
:1041e0004f04be0000000600e10f40001c0032003a
:1041f000310190001220b200e10f510015003a0089
:10420000210290000400e000120032001101900031
:10421000d1019000830f510010003200910178000d
:10422000848f510002003a008308e8000200370042
:104230000201e800920098001101e900820878006c
:10424000b10090000168a30005003a000049780021
:10425000000006000080eb00000006000080eb007c
:1042600000000600881f780000047800b800900065
:10427000010078001020b200e10f500005003a0064
:104280000000eb001004980028009000000c78005b
:10429000180037002120b2000000eb00222020008f
:1042a000828f500017003a00a80090000100e00043
:1042b00014003200180190000200e00011003200ea
:1042c000480090005bf3070098009000810f5000b9
:1042d00003003200380090000003b300300498005f
:1042e0000000eb001004980028009000000c7800fb
:1042f000b80090000000eb000158a300010032005c
:104300000080eb004f047800000006000200fa0075
:10431000889fbe00a0ff9f00010478003800900035
:104320000068a30033003a00e200600005003a0094
:104330000003b30030049800110498000080eb00e3
:104340002e003700d80490000900e00006003a0073
:1043500012002000e68057004800900035f3070067
:104360001904980023003700a80090000100e00025
:1043700008003a009126220021049800010c7800e0
:104380002100200051049800110498000030a00082
:104390003004980018019000a80090004800900098
:1043a00024f30700280090008080eb00110498009f
:1043b000aff8970001487800000ce8002ff897004c
:1043c000ea4f50000b003a00380090000088a3002c
:1043d0000800320018019000a800900048009000ea
:1043e00014f307000000eb0010049800a8009000f0
:1043f000010c7800aff897000100fb004f04be00ed
:104400000080fa000000060000c0da00000006008c
:1044100000c0da00000006002800fa00889fbe00f5
:104420008a9fbe008c9fbe000706780087866900c1
:104430000c003b00030478008704780008f0a1001a
:1044400009f0a100840f5000858f5800860f590095
:10445000890f5c00030033000cf0a20001003a0059
:104460000cf0a100ff0007006400e1005f003200d3
:10447000780147006408e100610032006c014700e8
:10448000748557003200be001201be003a04be001f
:104490001a05be001e039000be0a9000850353005b
:1044a00006003d000004fd008104fd000205fd0042
:1044b0008305fd008703ea00050378000df8a300db
:1044c0000400320060041400e0841c0060051d003c
:1044d000e0851d006022b8007d0320000d38e1005a
:1044e0008006eb000b0039004433dd00f300b2001e
:1044f0008301730039003700848272000d02780056
:10450000e10664008b85d1000a85d3008984d3003d
:104510000884d3008703e900f7ff3b000800400050
:10452000898048000a0149008b81490004003b0052
:1045300060001000e080180060011900e08119009f
:104540000358a300090032008d8272008482720039
:10455000610260008301d1000281d3008180d30019
:104560000080d3000603e8001b0037000348a300c7
:1045700017003a000600e000170034000603e900c7
:104580000d00a3000000480081804800020149009e
:10459000838149000348a3000f003a000600e000b1
:1045a000090034000603e900000040008180480053
:1045b000020149008381490001003a000003eb0039
:1045c0000348a300f5ff32006022b8000200370064
:1045d00084827200618266007600070003f0a10009
:1045e0000cf0a70003f0a000b20037006401470000
:1045f0006408e10002003a000df8a300aa003a00a6
:104600003200be001201be00aa0037000000000008
:104610008f1fd1009d0107008f87e9000000e00097
:1046200000000600809feb00980107008f87e900db
:104630000000e000000006002800fa00889fbe008d
:104640008a9fbe008c9fbe0003866b00850007001a
:104650006400e100440032006408e1004a003200d6
:104660006100e100460032006108e10049003200cb
:10467000ec0647006000b8003d02be003d03be00ee
:10468000f48657006011b8003d04be003d05be0031
:104690007d0320000b0037000000a0008d06e9001c
:1046a000130032000402420085824a0006034b00d8
:1046b00087834b00000040008180480002014900d0
:1046c000838149000802520089825a000a035b0074
:1046d0008b835b00f0ff3b000802420089824a00a6
:1046e0000a034b008b834b008d06e900edff3a0077
:1046f0008482720086827200f707b200878272009d
:1047000001003200150020001e0490003e0b9000b6
:1047100006035400e63fb0000368a3000700320020
:104720000000a7000500a0008301d1000281d30092
:104730008180d3000080d3000603e8008301d1000c
:104740000281d3008180d3000080d3000002eb00ff
:104750000482d2001700070003f0a1000cf0a700ac
:1047600003f0a00053003700640247006408e10032
:104770004d0032003400be003401be00f6ff3700a9
:104780006108e100480032006011b8006000b80024
:10479000f1ff370003ff270002002000fbff370076
:1047a000801feb00390107008f87e9000000e0005f
:1047b00000000600180020005700200008045300e5
:1047c0000d003d000600200097fc2f000740e1008f
:1047d0001e00340084827200610260008301d100f7
:1047e0000281d3008180d3000080d3000804e80058
:1047f000f8ff3a00470020006104600005047400df
:10480000040464000d00320061004000e0804800b4
:1048100060014900e081490003b8a50007003200ab
:104820000603e8006538e10004003a008301d10086
:104830000281d3008180d3000080d300f87f200064
:104840000830e10003003500080378006000b8007c
:104850006011b8004433dd00f300b200830173003f
:1048600000000600680447000294be000094be00e9
:10487000fc0447008694be008494be0009007800c2
:104880004b010700080078004901070099007800f3
:10489000814f70000b003b000800be0024010700a0
:1048a0004f00b10003003700f3ff2700f2ff2f0095
:1048b0006110b9004f06be004f05be004f04be0098
:1048c0000080fa000000060081037800e3f307008f
:1048d0000001be006000b8000478a30013003a0095
:1048e0006220e10015003e000d0039008301d10077
:1048f0000281d3008180d3008301d1000281d300e3
:104900008180d3008301d1000281d3008180d30054
:104910000538b000c42add00f300b20083817200c4
:1049200007f0a70003f0a00000000600f3ff270037
:10493000f2ff2f006110b900fbff370003ff2700d3
:10494000f7ff37001400fa00889fbe008a9fbe0060
:104950008c9fbe000004be000205be006800470038
:104960000a90be000890be00110107000070a70069
:104970000bf0a1000bf8a30020003a009e09900064
:104980000e099000fe0090006e0090009e029000c4
:104990003443200084825200c6ff32000a003c00eb
:1049a000b4fc2f000428e100140034008301d1007e
:1049b0000281d3008180d3000080d3008502e8000b
:1049c000faff3a00bbff3700b40020000428e100e2
:1049d00007003c00000040008180480002014900bf
:1049e000838149008502e900faff3a00b1ff3700f0
:1049f0000300280002002000010037006011b80009
:104a00006000b800abff37006011b8000f0137003d
:104a10001400fa00889fbe008a9fbe008c9fbe00d3
:104a2000040678000004be000205be0068004700ce
:104a30000a90be000890be00dd0007006200e100a1
:104a40000800be000a01be00040020000b003a006e
:104a50001e029000e43fb1006e009000fe00900046
:104a60000e0990009e099000f300b20005fe23009d
:104a7000858171000bf0a70003f0a000040e780000
:104a80008cff3700000000002800fa00889fbe005d
:104a90008a9fbe008c9fbe0003866b0071ff0700db
:104aa0000028a30064003a000128a30067003a0030
:104ab0000008a30062003a000108a30065003a0064
:104ac0001e009000be08900081064000ed3fb1003e
:104ad000f4805700ee019000111ab8008e09900082
:104ae000311bb8009e099000311cb800511db80060
:104af000f485570046000700fe0190003a000700c9
:104b00008b85e8003e0007008e09900040000700fa
:104b1000ee019000340007008b85e80038000700a4
:104b20008e099000400007009e0990001b18b800f5
:104b3000890440000a854800fe0190003400070007
:104b40008b85e80038000700ee0190003000070078
:104b50008e0990001b18b800890440000a8548009f
:104b60000a98a30008003a000402420085824a0025
:104b700006034b0087834b0008044c0089844c00db
:104b80000a054d008d06e9008482720085027300db
:104b90004c3add0085027200010032001500200051
:104ba000443ade001400b2004538de00cb45dd009b
:104bb0000b007000c540de00cb4ddd008b80700027
:104bc0004549de00cb55dd000b017100c551de000b
:104bd0000d037800f7fe070003f0a1000cf0a7001a
:104be00003f0a00033ff37001b18b8008502400017
:104bf00006834800e0834b0060044c000700370048
:104c00001b18b8000603400087834800faff3700ee
:104c10001b18b8008703400008844800e0844c005b
:104c200060054d00000006001b18b8000804400095
:104c300089844800faff37000108a3001aff3a00f0
:104c40005800be005801be00e3ff37000008a30073
:104c500015ff3a0009047800f9ff37000000000052
:104c600007f0a200ecfd370092f307000400be003d
:104c700000000600020ab900001bb9000200b800db
:104c8000810042008100430000000600889fbe00b2
:104c90008a9fbe008c9fbe000404be000605be00b5
:104ca000809fbe00829fbe002f0007000406780090
:104cb0000800be000a01be002b0007008406780031
:104cc0004f03be004f02be008d4f76007fb09700ad
:104cd00013003300f0ff2f008b8f6b0006003b00aa
:104ce0000d0666000c00a7000a00370007f0a600ba
:104cf000100020000a003700880f5200898f5a00e8
:104d00008a0f5b008b8f5b000300390010002000ce
:104d100001003e000000200007f0a7000000ea00ac
:104d20004f06be004f05be004f04be000000060047
:104d3000e48240001078a3000700320064024000c3
:104d40001178a3003400be001401be00040032003c
:104d50000330a700000006003500be001501be00ac
:104d60000330a0000000060005ff27000582610057
:104d7000070032000428e100010032002400050091
:104d80000600070001003a00440005000408050081
:104d900002000700f9ff3a00140005006f8261006d
:104da0008102700085027100850272000000060019
:104db000800078005002be005003be004439de007f
:104dc000f700b200f37f2000030161000900320008
:104dd0000218e10016003a00850172008301730099
:104de000838173000008200015003a004000200075
:104df0001300370085017200830173008381730003
:104e000005003a0004a8be0006a8be00100020005d
:104e10000b0037000201e9000402420085824a00cb
:104e200006034b0087834b000748a300f9ff3200bd
:104e30000740a00004a8be0006a8be002000200075
:104e4000800098009200980000000600889fbe0035
:104e5000008270000402710004827100240032009c
:104e600036432000c50020008383cf000a003900ac
:104e70000541b1008283cf00070039000541b10030
:104e80008183cf00040039000541b1008083cf0049
:104e9000010039000541b10085c353006022b8000c
:104ea000120032000a003b0084827200610260003e
:104eb0008301d1000281d3008180d3000080d30020
:104ec0000603e8008743e800f7ff3a0007003700d1
:104ed00000004000818048000201490083814900b0
:104ee0000603e9008743e900f9ff3a0031fe0700b5
:084ef0004f04be0000000600a3
:020000040000fa
:104ef8000c070000574500004c4300004f4d0000d0
:104f080045200000746f00002074000068650000f0
:104f18002053000065720000436f00006d20000000
:104f2800707200006f7400006f6300006f6c000007
:104f3800206f00006e200000652d000050750000f5
:104f4800636b00000d0a0000746800006520000013
:104f580045500000464c00002065000064750000c4
:104f680063610000746900006f6e00002072000029
:104f78006f6200006f7400002074000079700000f8
:104f8800652000002248000022200000666f000013
:104f980072200000686500006c7000000d0a0000b7
:104fa800006100002c250000642c0000256400002e
:104fb8002c250000640d00000a000000612c000090
:104fc800302c0000302c0000300d00000a000000da
:104fd800622c0000256400002028000025640000e1
:104fe80025250000290d00000a000000622c0000a1
:104ff800256400000d0a0000004200002c25000076
:10500800640d0000006200000d0a0000006300004b
:105018002c250000640d00000a000000442c00004c
:10502800256400002c250000640d000000640000c9
:105038000d0a0000006500002c250000642c00000b
:10504800256400000d0a0000004600002c25000021
:10505800640d0000006600000d0a000000670000f3
:1050680020490000522000006368000065630000ca
:105078006b2000003a2000003078000025780000fe
:105088002c20000061640000647200006573000059
:10509800732000003a2000003078000025780000d6
:1050a8002c2000006461000074610000203a0000b8
:1050b8002030000078250000780d00000a0000006c
:1050c800672c0000256400002c250000642c0000db
:1050d800256400000d0a0000006700002c30000065
:1050e8002c3000002c3000000d0a0000000a0000df
:1050f80000220000412200002020000020200000a3
:105108002020000020200000202000002020000097
:10511800202000002041000063630000656c00004f
:10512800657200006f6d0000657400006572000014
:105138000d0a000000220000422c0000232200007b
:105148002020000020200000202000002020000057
:105158002020000020200000204200006f64000092
:10516800792000006c65000064200000303d0000dc
:105178006f66000066200000313d00006f6e000081
:10518800203200003d6900006e7600006572000064
:10519800736500000d0a0000002200006222000072
:1051a80020200000202000002020000020200000f7
:1051b80020200000202000002020000020420000c5
:1051c80061740000746500007279000020760000a8
:1051d800616c0000756500000d0a000000220000e7
:1051e8006222000020200000202000002020000073
:1051f80020200000202000002020000020200000a7
:10520800204200006174000074650000727900009b
:1052180020730000746100007465000020280000fd
:10522800313d00006f6b00002c200000303d000075
:105238006c6f0000772900000d0a000000220000b2
:105248004322000020200000202000002020000031
:105258002020000020200000202000002020000046
:1052680020530000656c000065630000746f000047
:1052780072200000706f00007369000074690000fc
:105288006f6e00000d0a000000220000442c000090
:10529800232c0000232200002020000020200000f2
:1052a80020200000202000002020000020530000c3
:1052b80065740000206d00006f7400006f720000bc
:1052c800207300007065000065640000206c000019
:1052d80065660000742c00007269000067680000b1
:1052e800740d00000a000000224500002220000082
:1052f80020200000202000002020000020200000a6
:105308002020000020200000202000004765000029
:10531800742000006d6f0000746f000072200000a0
:105328007370000065650000642000006c65000073
:10533800667400002c720000696700006874000041
:105348000d0a000000220000462c00002322000065
:105358002020000020200000202000002020000045
:10536800202000002020000020460000726f00006e
:105378006e740000206c000065640000203000009e
:105388003d6f000066660000203100003d6f0000a0
:105398006e200000323d0000696e00007665000056
:1053a80072730000650d00000a000000224700002b
:1053b80022200000202000002020000020200000e3
:1053c80020200000202000002020000020200000d5
:1053d8004952000020720000656300006569000002
:1053e80076650000720d00000a00000022670000c8
:1053f80022200000202000002020000020200000a3
:105408002020000020200000202000002020000094
:1054180047790000726f00000d0a000000220000aa
:10542800482200002020000020200000202000004a
:105438002020000020200000202000002020000064
:1054480020480000656c0000700d00000a00000094
:105458002249000022200000202000002020000017
:105468002020000020200000202000002020000034
:1054780020200000476500007420000063610000e0
:105488006d6500007261000020700000617200000c
:10549800616d000065740000657200000d0a00006f
:1054a800002200004a2c0000232c0000232c0000be
:1054b800232c0000232c0000232c000023220000b2
:1054c80020200000205300006574000020630000c5
:1054d800616d0000657200006120000070610000cd
:1054e800726100006d6500007465000072200000a4
:1054f8006d6f0000646500002c770000696400008f
:10550800746800002c68000065690000677400007a
:10551800682c00007a6f00006f6d000028310000d1
:105528002c340000206f0000722000003829000091
:105538002c780000312c0000793100000d0a0000a1
:10554800002200004b220000202000002020000044
:105558002020000020200000202000002020000043
:105568002020000020430000616c000069620000f8
:10557800726100007465000020700000726f000006
:10558800786900006d6900007479000020730000dc
:10559800656e0000736f0000727300000d0a000052
:1055a800002200004c2c0000232c000023220000c5
:1055b80020200000202000002020000020200000e3
:1055c80020200000204c000065640000206e0000d0
:1055d800756d000062650000722c0000303d00000f
:1055e8006f66000066200000313d00006f6e00000d
:1055f800203200003d6900006e76000065720000f0
:10560800736500000d0a0000002200004d22000012
:105618002020000020200000202000002020000082
:10562800202000002020000020200000204600004c
:105638006c6f00006f72000020730000656e000040
:10564800736f0000727300000d0a00000022000052
:105658004e22000020200000202000002020000012
:105668002020000020200000202000002020000032
:1056780020500000726f0000786900006d6900001a
:10568800747900000d0a0000002200004f2200007b
:105698002020000020200000202000002020000002
:1056a800202000002020000020200000204c0000c6
:1056b800696700006874000020730000656e0000d0
:1056c800736f0000727300000d0a000000220000d2
:1056d800502c0000232c0000232200002020000072
:1056e80020200000202000002020000020200000b2
:1056f8002053000065740000206d00006f740000e6
:105708006f720000207000006f7300006974000061
:10571800696f00006e2000006c6500006674000070
:105728002c72000069670000687400000d0a000010
:10573800002200005122000020200000202000004c
:105748002020000020200000202000002020000051
